:2000000021C03BC03AC039C0CBC437C036C035C034C033C032C031C030C02FC02EC0A6C3A0
:20002000ACC3B2C3B9C3C0C3C8C3CEC3D4C3DCC328C42EC436C43DC444C44AC450C456C46E
:200040005EC464C411241FBECFE5D2E0DEBFCDBF10E0A0E6B0E0EEE7FDE002C005900D9207
:20006000AC38B107D9F710E0ACE8B0E001C01D92A63AB107E1F790D580C6C2CFA0E0B0E0D4
:20008000E3E4F0E04BC6EC01A880B980CA80DB80A114B104C104D10441F484E2A82E89EDDA
:2000A000B82E8BE5C82E87E0D82EC601B5012DE133EF41E050E0D9D527EA31E440E050E065
:2000C000A8D57B018C01C601B5012DE133EF41E050E0CBD5CA01B9012CEE34EF4FEF5FEFAE
:2000E00098D56E0D7F1D801F911F97FF04C06150704080409048688379838A839B839B012C
:20010000AC015F77B901CA01CDB7DEB7EAE022C6B5DF089580E690E0B1DF08956093600085
:200120007093610080936200909363000895FF920F931F93CF93DF93F82EFB01E90102C03C
:20014000E956F14081E0E936F807D4F702C0E759FE4FF7FDFCCF4115510521F4BE01AE01A8
:20016000CE0194C08FEF90E0841B950BBE013FD5292F332727FD3A950CE310E0CF016CE3B9
:2001800070E060D562307105C1F16330710544F46115710589F06130710509F077C019C06A
:2001A0006430710509F44EC064307105BCF16530710509F06BC056C0BE01621B730BCF01A4
:2001C00016D56CE370E03ED5AB01420F531FBE0112C0CF016CE370E035D5BE01621B730B4F
:2001E000A801481B590BCA0102D56CE370E02AD5620F731FAE01C90149C0CF016CE370E05B
:2002000021D5BE01621B730BF2D46CE370E01AD5CB01820F931FB901AE0138C0CF016CE34B
:2002200070E010D5BE01621B730BA801481B590BCA01DDD46CE370E005D5AB01420F531FFB
:20024000B9010EC0CF016CE370E0FCD4BE01621B730BCDD46CE370E0F5D4620F731FA90167
:20026000CE0114C0CF016CE370E0ECD4BE01621B730BA801481B590BCA01B9D46CE370E08B
:20028000E1D4CB01820F931FBE01A901EF2DF0E0E457FF4FA3E075956795AA95E1F7608339
:2002A00033E0559547953A95E1F7458323E0959587952A95E1F78287DF91CF911F910F91ED
:2002C000FF90089540E050E016C08C9187BB808188BB2F5F3F4F26173707B8F304C017BA52
:2002E00018BA6F5F7F4F6F317105C8F34F5F5F4F4031510579F0FA01E457FF4F8081682F17
:2003000070E020E030E0DA01AC59BF4FFA01ED58FF4FE1CF08950F931F93CF93DF938C01FF
:20032000000F111F000F111FC0E0D0E002C0CADF2196C017D107D8F3DF91CF911F910F9133
:2003400008958BE990E060E070E017D38A3018F48093A60008951092A60008958BE990E0BD
:2003600060E070E00AD34091A600841729F08BE990E060E070E008D30895AF92BF92CF9206
:20038000DF92EF92FF920F931F937A018B01A0E0B0E0BC01CD0120E63AEE40E050E039D459
:2003A0005B016C01AE0CBF1CC01ED11E01E0EE24E39410E0FF24F3943CD36A157B058C056F
:2003C0009D05F0F4802F81508E3108F0EF24EE2011F4082F01C00F5F002331F4E12FF0E0AC
:2003E000E457FF4F10821F5F1F3008F010E0E12FF0E0E457FF4F008388E090E08CDFDCCF53
:200400001F910F91FF90EF90DF90CF90BF90AF9008952F923F924F925F926F927F928F92EE
:200420009F92AF92BF92CF92DF92EF92FF920F931F93DF93CF9300D00F92CDB7DEB76A01F8
:200440007B012983A0E0B0E0BC01CD0120E63AEE40E050E0DED34B015C018C0C9D1CAE1CE6
:20046000BF1C402E5524222433242418350828E6622E21E0722E64187508DBD268157905C4
:200480008A059B05B8F5630198E6E92E91E0F92ED0D2681579058A059B0578F710E01B8227
:2004A0001A828A819B81698170E0CCD3CB018E0D9F1D68E671E0C6D3BC01812F4FEF50E06A
:2004C0002FEF30E034DE1F5F8A819B8188599E4F9B838A83153029F789E190E01CDFE20C16
:2004E000F31CC20CD31CC601840D951D1816190624F6CECF0F900F900F90CF91DF911F91C5
:200500000F91FF90EF90DF90CF90BF90AF909F908F907F906F905F904F903F902F9008957C
:200520002F923F924F925F926F927F928F929F92AF92BF92CF92DF92EF92FF920F931F9329
:20054000DF93CF93CDB7DEB72B970FB6F894DEBF0FBECDBF7C012A013B01122F0B8768E6A0
:2005600071E080E090E01CD34B01DE011196E7E8F0E085E001900D928150E1F7DE01169631
:20058000E2E8F0E085E001900D928150E1F7B70180E090E020E63AEE40E050E03AD36B0104
:2005A0007C01C40CD51CE61CF71C1E010894211C311C36E0432E512C4C0E5D1E612E7724A0
:2005C00038D26C157D058E059F0508F048C052018101802F82199B85913039F4F801208110
:2005E000B4014EEF50E030E009C0FB85F23039F4F8014081B40150E02EEF30E098DDF801F7
:200600002081822F90E08C3F910514F4233088F4F5018081F1E08F27F5018083233010F412
:20062000860C971CF8E68F16F1E09F0610F088249924F5018081882311F02E5F01C02250B0
:20064000F80120830F5F1F4F0894A11CB11C0415150509F0BECF8AE090E05DDEB1CF2B96ED
:200660000FB6F894DEBF0FBECDBFCF91DF911F910F91FF90EF90DF90CF90BF90AF909F907A
:200680008F907F906F905F904F903F902F9008958F929F92AF92BF92CF92DF92EF92FF926C
:2006A0001F937C014A015B0110E068E671E080E090E076D29B01AC01812FB9014FEF50E09C
:2006C0002FEF30E034DD1F5F153079F7B70180E090E020E63AEE40E050E09BD26B017C014C
:2006E000C80CD91CEA1CFB1C65E070E080E090E057D2162F68E671E080E090E051D29B0113
:20070000AC01812FB9014FEF50E02FEF30E00FDD88EE93E000DE8DD16C157D058E059F05DB
:2007200018F31F91FF90EF90DF90CF90BF90AF909F908F9008950F935DC0FC01E457FF4F64
:200740001082019680319105C4F368E070E080E090E026D2882777FD8095982FFB0169307E
:20076000710508F047C0E15FFF4F099462D1AB01BC0185E090E024E115C05BD1AB01BC01F9
:2007800085E090E024E116C054D1AB01BC0185E090E024E105E00FC04CD1AB01BC0185E0A2
:2007A00090E025E001E007C044D1AB01BC0185E090E025E002E02DDE1DC03BD1AB01BC0185
:2007C00085E090E065DF16C034D1AB01BC0185E090E021E006C02DD1AB01BC0185E090E0E4
:2007E00024E001E09DDE06C024D1AB01BC0185E090E0C3DD80E090E0A5CF8091A600815034
:200800008093A6008A3018F089E08093A600A6DD3798479A85B7846885BF85B7877E80617A
:2008200085BF85B7806285BF7894889564EF71E080E090E00CD185B78F7D85BF08950F93CD
:20084000E091A600F0E0E457FF4F8FE1808388EE93E061DDE091A600F0E0E457FF4F10828C
:200860006AEF70E080E090E0F2D078DD8091A600E82FF0E0EA30F10508F049C0E85EFF4FA5
:200880000994D7D0AB01BC0180EF90E024E117C0D0D0AB01BC0180EF90E024E102E0B9DD8B
:2008A00036C0C7D0AB01BC0180EF90E024E105E0F6CFBFD0AB01BC0180EF90E025E001E0F7
:2008C000EECFB7D0AB01BC0180EF90E025E0E6CFB0D0AB01BC0180EF90E0DADE18C0A9D001
:2008E000AB01BC0180EF90E021E006C0A2D0AB01BC0180EF90E024E001E012DE08C099D029
:20090000AB01BC0180EF90E038DD01C014DF75DF0F9108950F93DF93CF9300D0CDB7DEB7D6
:2009200004B600FE06C014BE0CDD80E090E000E21BC004B601FEF9CF14BE8091A6008F5FF9
:200940008093A6008A3088F31092A600EECF9C01220F331F3A83298381E0FAD081709070FF
:20096000E981FA818E2B9F2B015089F739D10F900F90CF91DF910F910895E199FECF7FBB68
:200980006EBBE09A8DB30895E199FECF1CBA7FBB6EBB4DBB0FB6F894E29AE19A0FBE08959D
:2009A0001F920F920FB60F9211242F933F938F939F93AF93BF938091A0009091A100A0912A
:2009C000A200B091A3003091A400232F2D5F2D3728F02D570296A11DB11D03C00196A11D12
:2009E000B11D2093A4008093A0009093A100A093A200B093A30080919C0090919D00A09104
:200A00009E00B0919F000196A11DB11D80939C0090939D00A0939E00B0939F00BF91AF9183
:200A20009F918F913F912F910F900FBE0F901F9018958FB7F8942091A0003091A100409119
:200A4000A2005091A3008FBFB901CA0108959B01AC017FB7F89480919C0090919D00A09159
:200A60009E00B0919F006FB508B602FE05C06F3F19F00196A11DB11D7FBFBA2FA92F982FB1
:200A80008827860F911DA11DB11D62E0880F991FAA1FBB1F6A95D1F7BC012EC0FFB7F894F0
:200AA00080919C0090919D00A0919E00B0919F00EFB508B602FE05C0EF3F19F00196A11D69
:200AC000B11DFFBFBA2FA92F982F88278E0F911DA11DB11DE2E0880F991FAA1FBB1FEA9549
:200AE000D1F7861B970B885E9340C0F2215030404040504068517C4F211531054105510503
:200B000069F60895789480B7806880BF80B7806480BF8CB580648CBD8FEF8DBD80B7807FA9
:200B2000876080BF89B7846089BF83B7887F83BF8AB58C7F81608ABD83B7877F83BF83B772
:200B4000887F836083BF86B1876086B9379A0895482F863008F046508091A50027B1382FEE
:200B60003295330F330F307C2F72322B90E08470907096958795969587958295807F382B15
:200B800037B987B1807F842B87B9369A3699FECF24B135B1C9010895B5DFBCDE50DEFECF88
:200BA000EF92FF920F931F937B018C01611571058105910529F420E030E040E050E009C078
:200BC000A9DAA801970151D0AC01CB01DA019C01AD01B901CA011F910F91FF90EF90089511
:200BE000009721F0BC0180E090E098DA08955527002480FF02C0060E571F660F771F6115C5
:200C0000710521F096958795009799F7952F802D0895FF27EE27BB27AA2760FF04C0A20F0F
:200C2000B31FE41FF51F220F331F441F551F969587957795679589F70097760771F7CF0156
:200C4000BD01089597FB092E07260AD077FD04D027D006D000201AF4709561957F4F0895C0
:200C6000F6F7909581959F4F089597FB092E05260ED057FD04D028D00AD0001C38F45095C8
:200C80004095309521953F4F4F4F5F4F0895F6F790958095709561957F4F8F4F9F4F089534
:200CA000AA1BBB1B51E107C0AA1FBB1FA617B70710F0A61BB70B881F991F5A95A9F78095FC
:200CC0009095BC01CD010895A1E21A2EAA1BBB1BFD010DC0AA1FBB1FEE1FFF1FA217B30755
:200CE000E407F50720F0A21BB30BE40BF50B661F771F881F991F1A9469F7609570958095FC
:200D000090959B01AC01BD01CF0108952F923F924F925F926F927F928F929F92AF92BF92E0
:200D2000CF92DF92EF92FF920F931F93CF93DF93CDB7DEB7CA1BDB0B0FB6F894DEBF0FBE08
:200D4000CDBF09942A88398848885F846E847D848C849B84AA84B984C884DF80EE80FD8021
:200D60000C811B81AA81B981CE0FD11D0FB6F894DEBF0FBECDBFED010895F894FFCF0100ED
:200D800000000311180C06060311180C0A051209140201100804020110080402011008043C
:0A0DA0000101010101251D150D05DB
:00000001FF
