:2000000018C032C031C030C09DC52EC02DC02CC02BC02AC029C028C027C026C025C003C5EC
:2000200009C50FC517C51EC524C52AC532C538C53FC511241FBECFE5D2E0DEBFCDBF10E0FE
:20004000A0E6B0E0E2E2FFE002C005900D92AC38B107D9F710E0ACE8B0E001C01D92A53B21
:20006000B107E1F76BD65BC7CBCFA0E0B0E0EAE3F0E026C7EC01A880B980CA80DB80A114B1
:20008000B104C104D10441F484E2A82E89EDB82E8BE5C82E87E0D82EC601B5012DE133EFC4
:2000A00041E050E0B4D627EA31E440E050E083D67B018C01C601B5012DE133EF41E050E08F
:2000C000A6D6CA01B9012CEE34EF4FEF5FEF73D66E0D7F1D801F911F97FF04C061507040EC
:2000E00080409048688379838A839B839B01AC015F77B901CA01CDB7DEB7EAE0FDC6B5DF78
:20010000089580E690E0B1DF0895609360007093610080936200909363000895EF92FF92DE
:200120000F931F93CF93DF93F82EE62EFA0102C0E956F14041E0E936F407D4F702C0E75928
:20014000FE4FF7FDFCCF2115310521F4B801A801980194C08FEF90E0821B930BB80119D6F2
:20016000C92FDD27C7FDDA952CE330E0CF016CE370E03AD662307105C1F16330710544F4B7
:200180006115710589F06130710509F077C019C06430710509F44EC064307105BCF1653089
:2001A000710509F06BC056C0B8016C1B7D0BCF01F0D56CE370E018D6AB014C0F5D1FB80169
:2001C00012C0CF016CE370E00FD6B8016C1B7D0BA901481B590BCA01DCD56CE370E004D6CB
:2001E0006C0F7D1FA8019E0149C0CF016CE370E0FBD5B8016C1B7D0BCCD56CE370E0F4D587
:200200009B012C0F3D1FBE01A80138C0CF016CE370E0EAD5B8016C1B7D0BA901481B590BE4
:20022000CA01B7D56CE370E0DFD5AB014C0F5D1FBE010EC0CF016CE370E0D6D5B8016C1BAA
:200240007D0BA7D56CE370E0CFD56C0F7D1FAE01980114C0CF016CE370E0C6D5B8016C1BDA
:200260007D0BA901481B590BCA0193D56CE370E0BBD59B012C0F3D1FB801AE018F2D90E05C
:20028000EE2021F0FC01E457FF4F03C0FC01E556FF4F608345832287DF91CF911F910F91FC
:2002A000FF90EF90089540E050E016C08C9187BB808188BB2E5F3F4F26173707B8F304C0C5
:2002C00017BA18BA6E5F7F4F683C7105C8F34F5F5F4F4031510579F0FA01E457FF4F8081FA
:2002E000682F70E020E030E0DA01AC59BF4FFA01ED58FF4FE1CF08950F931F93CF93DF9316
:200300008C01C0E0D0E002C0CEDF2196C017D107D8F3DF91CF911F910F9108951F93ECE81D
:20032000F0E0ABE9B0E010E080819C91891718F48F5F80831F5F8081981718F48150808300
:200340001F5F3196119680E0EB39F80769F7ABDF112329F71F9108958AEA90E060E070E02F
:20036000DED38A3008F081E08093B50008958AEA90E060E070E0D3D34091B500841729F000
:200380008AEA90E060E070E0D1D30895AF92BF92CF92DF92EF92FF920F931F937A018B01D7
:2003A000A0E0B0E0BC01CD0120E63AEE40E050E002D55B016C01AE0CBF1CC01ED11E01E041
:2003C000EE24E39410E0FF24F39405D46A157B058C059D05F0F4802F81508E3F08F0EF24B3
:2003E000EE2011F4082F01C00F5F002331F4E12FF0E0E457FF4F10821F5F1F3008F010E08C
:20040000E12FF0E0E457FF4F008383E090E074DFDCCF1F910F91FF90EF90DF90CF90BF90A4
:20042000AF9008952F923F924F925F926F927F928F929F92AF92BF92CF92DF92EF92FF92A2
:200440000F931F93DF93CF9300D000D0CDB7DEB76A017B01622EA0E0B0E0BC01CD0120E6A3
:200460003AEE40E050E0A7D44B015C018C0C9D1CAE1CBF1C202E332488279927821993099F
:200480009A83898348E6442E41E0542E42185308A2D3681579058A059B05E0F5620138E646
:2004A000E32E31E0F32E97D3681579058A059B0578F777241C821B828B819C81662D70E014
:2004C00093D4CB018E0D9F1D68E671E08DD4AC01872D61E02FEF30E00FEF10E01FDE85E072
:2004E00090E00ADF7394EB81FC81E859FE4FFC83EB83F5E07F1601F789819A81E80EF91EA4
:20050000C80ED91EC601820D931D181619060CF0BFCFC9CF0F900F900F900F90CF91DF914D
:200520001F910F91FF90EF90DF90CF90BF90AF909F908F907F906F905F904F903F902F9049
:2005400008952F923F924F925F926F927F928F929F92AF92BF92CF92DF92EF92FF920F931E
:200560001F93DF93CF93CDB7DEB72D970FB6F894DEBF0FBECDBF7C011A012B01122F0B873A
:2005800068E671E080E090E0DDD33B01DE011196E7E8F0E085E001900D928150E1F7DE01BE
:2005A0001696E2E8F0E085E001900D928150E1F7B70180E090E020E63AEE40E050E0FBD3E3
:2005C0005B016C01A20CB31CC41CD51CCE0101969D878C8756E0252E312C2C0E3D1E412E7D
:2005E0005524F9D26A157B058C059D0508F04CC041017E010894E11CF11C8E2D9C85891B9A
:20060000EB85E13041F4F701008161E0A3012FEF30E010E00AC0FB85F23041F4F70120816E
:2006200061E0A30130E00FEF10E078DD82E090E063DEF7012081822F90E08C3F910514F44C
:20064000233070F4F401808191E089278083640C751CF8E66F16F1E07F0610F066247724EA
:20066000F4018081882311F02E5F01C02250F70120830894E11CF11C0894811C911CE214FB
:20068000F30409F0BACFADCF2D960FB6F894DEBF0FBECDBFCF91DF911F910F91FF90EF902D
:2006A000DF90CF90BF90AF909F908F907F906F905F904F903F902F9008958F929F92AF92F6
:2006C000BF92CF92DF92EF92FF920F931F936C014A015B01FF2468E671E080E090E032D3E6
:2006E0009B01AC018F2D61E0A9012FEF30E00FEF10E014DDF39485E0F81669F7B60180E08C
:2007000090E020E63AEE40E050E055D36B017C01C80CD91CEA1CFB1C65E070E080E090E08F
:2007200011D3162F68E671E080E090E00BD39B01AC01812F61E0A9012FEF30E00FEF10E043
:20074000EDDC88EE93E0D8DD46D26C157D058E059F0510F31F910F91FF90EF90DF90CF90B1
:20076000BF90AF909F908F9008950F935BC0FC01E457FF4F1082019680319105C4F367E04F
:2007800070E080E090E0DED26330710559F1643071054CF461307105B9F062307105DCF464
:2007A000672B59F03FC06530710569F1653071050CF166307105B1F52DC00DD2AB01BC010B
:2007C00085E090E07ADF2EC006D2AB01BC0185E090E024E10DC0FFD1AB01BC0185E090E007
:2007E00024E10EC0F8D1AB01BC0185E090E025E001E007C0F0D1AB01BC0185E090E025E06E
:2008000005E010DE0FC0E7D1AB01BC0185E090E021E006C0E0D1AB01BC0185E090E024E086
:2008200001E08FDE80E090E0A7CF8091B50081508093B5008A3018F089E08093B50097DD5E
:200840003798479A85B7846885BF85B7877E806185BF85B7806285BF7894889564EF71E0E7
:2008600080E090E0C6D185B78F7D85BF08952F923F924F925F926F927F928F929F92AF92DF
:20088000BF92CF92DF92EF92FF920F931F93DF93CF9300D000D0CDB7DEB77C015A016B01FE
:2008A00029838DB79EB79B838A83EDB7FEB73A970FB6F894FEBF0FBEEDBF8DB69EB60894E4
:2008C000811C911C12821182F4011382128215821482178216821186108668E671E080E0FF
:2008E00090E030D21B0100E010E0C801B70120E63AEE40E050E05FD22B013C014A0C5B1C34
:200900006C1C7D1CEE24E3947FEFA72EB12C63D1641575058605970528F0F981FF2309F40E
:2009200042C083DFE3948E2D90E005976CF00894211C311C88E6281681E0380620F0EE2426
:200940002224332401C0EE24EE2DF0E0EE0FFF1FE80DF91DB182A0826401F40120E02E1524
:2009600031F0808191818C549040918380838081918197FF02C0118210822F5F3296253041
:2009800071F790E0F601019111916F01892F60E0A1012FEF30E09C83C1DB9C819F5F953081
:2009A00089F7BCDCB4CF8A819B810FB6F8949EBF0FBE8DBF0F900F900F900F90CF91DF9162
:2009C0001F910F91FF90EF90DF90CF90BF90AF909F908F907F906F905F904F903F902F90A5
:2009E00008950F93E091B500F0E0E457FF4F84EF808388EE93E080DCE091B500F0E0E4574D
:200A0000FF4F10826AEF70E080E090E0F2D0AFDC8091B500E82FF0E0EA30F10508F049C072
:200A2000E15FFF4F0994D7D0AB01BC0180EF90E044DE3FC0D0D0AB01BC0180EF90E024E18E
:200A40000FC0C9D0AB01BC0180EF90E024E102E0E9DC2FC0C0D0AB01BC0180EF90E025E06E
:200A600001E0F6CFB8D0AB01BC0180EF90E025E0EECFB1D0AB01BC0180EF90E021E006C0AE
:200A8000AAD0AB01BC0180EF90E024E001E059DD10C0A1D0AB01BC0180EF90E077DC09C0D4
:200AA0009AD0AB01BC0180EF90E020E0E0DE01C05CDEBBDE0F9108950F93DF93CF9300D0AF
:200AC000CDB7DEB704B600FE06C014BE45DC80E090E000E21BC004B601FEF9CF14BE80919B
:200AE000B5008F5F8093B5008A3088F31092B500EECF9C01220F331F3A83298381E0FAD08E
:200B000081709070E981FA818E2B9F2B015089F739D10F900F90CF91DF910F910895E199DC
:200B2000FECF7FBB6EBBE09A8DB30895E199FECF1CBA7FBB6EBB4DBB0FB6F894E29AE19A5E
:200B40000FBE08951F920F920FB60F9211242F933F938F939F93AF93BF938091AF009091E1
:200B6000B000A091B100B091B2003091B300232F2D5F2D3728F02D570296A11DB11D03C0B7
:200B80000196A11DB11D2093B3008093AF009093B000A093B100B093B2008091AB00909181
:200BA000AC00A091AD00B091AE000196A11DB11D8093AB009093AC00A093AD00B093AE003B
:200BC000BF91AF919F918F913F912F910F900FBE0F901F9018958FB7F8942091AF0030914B
:200BE000B0004091B1005091B2008FBFB901CA0108959B01AC017FB7F8948091AB009091D8
:200C0000AC00A091AD00B091AE006FB508B602FE05C06F3F19F00196A11DB11D7FBFBA2FB3
:200C2000A92F982F8827860F911DA11DB11D62E0880F991FAA1FBB1F6A95D1F7BC012EC0F1
:200C4000FFB7F8948091AB009091AC00A091AD00B091AE00EFB508B602FE05C0EF3F19F09E
:200C60000196A11DB11DFFBFBA2FA92F982F88278E0F911DA11DB11DE2E0880F991FAA1FAB
:200C8000BB1FEA95D1F7861B970B885E9340C0F2215030404040504068517C4F21153105A4
:200CA0004105510569F60895789480B7806880BF80B7806480BF8CB580648CBD8FEF8DBDA2
:200CC00080B7807F876080BF89B7846089BF83B7887F83BF8AB58C7F81608ABD83B7877F17
:200CE00083BF83B7887F836083BF86B1876086B9379A0895482F863008F046508091B40001
:200D000027B1382F3295330F330F307C2F72322B90E0847090709695879596958795829596
:200D2000807F382B37B987B1807F842B87B9369A3699FECF24B135B1C9010895B5DFBCDE7F
:200D400050DEFECFEF92FF920F931F937B018C01611571058105910529F420E030E040E0D4
:200D600050E009C0CED9A801970151D0AC01CB01DA019C01AD01B901CA011F910F91FF906E
:200D8000EF900895009721F0BC0180E090E0BDD908955527002480FF02C0060E571F660FEF
:200DA000771F6115710521F096958795009799F7952F802D0895FF27EE27BB27AA2760FFD7
:200DC00004C0A20FB31FE41FF51F220F331F441F551F969587957795679589F70097760778
:200DE00071F7CF01BD01089597FB092E07260AD077FD04D027D006D000201AF47095619552
:200E00007F4F0895F6F7909581959F4F089597FB092E05260ED057FD04D028D00AD0001CCC
:200E200038F450954095309521953F4F4F4F5F4F0895F6F790958095709561957F4F8F4F0C
:200E40009F4F0895AA1BBB1B51E107C0AA1FBB1FA617B70710F0A61BB70B881F991F5A9584
:200E6000A9F780959095BC01CD010895A1E21A2EAA1BBB1BFD010DC0AA1FBB1FEE1FFF1F71
:200E8000A217B307E407F50720F0A21BB30BE40BF50B661F771F881F991F1A9469F7609501
:200EA0007095809590959B01AC01BD01CF0108952F923F924F925F926F927F928F929F92B7
:200EC000AF92BF92CF92DF92EF92FF920F931F93CF93DF93CDB7DEB7CA1BDB0B0FB6F8943F
:200EE000DEBF0FBECDBF09942A88398848885F846E847D848C849B84AA84B984C884DF8001
:200F0000EE80FD800C811B81AA81B981CE0FD11D0FB6F894DEBF0FBECDBFED010895F8942F
:200F2000FFCF010000000311180C06060311180C0A051209140201100804020110080402E8
:0E0F4000011008040101010101251D150D0518
:00000001FF
