:200000002BC045C044C043C045C641C040C03FC03EC03DC03CC03BC03AC039C038C0A8C495
:20002000AEC4B4C4BBC4C2C4CAC4D0C4D6C4DEC4E4C4EAC4F3C4FCC405C561C567C56FC556
:2000400076C57DC583C589C58FC595C59DC5A3C5ACC5B5C5BEC5CFC511241FBECFE5D2E09B
:20006000DEBFCDBF10E0A0E6B0E0E2E7F0E102C005900D92AC38B107D9F710E0ACE8B0E041
:2000800001C01D92A63AB107E1F700D7F0C7B8CFA0E0B0E0EDE4F0E0BBC7EC01A880B980EA
:2000A000CA80DB80A114B104C104D10441F484E2A82E89EDB82E8BE5C82E87E0D82EC60130
:2000C000B5012DE133EF41E050E049D727EA31E440E050E018D77B018C01C601B5012DE1D0
:2000E00033EF41E050E03BD7CA01B9012CEE34EF4FEF5FEF08D76E0D7F1D801F911F97FF52
:2001000004C06150704080409048688379838A839B839B01AC015F77B901CA01CDB7DEB753
:20012000EAE092C7B5DF089580E690E0B1DF089560936000709361008093620090936300B6
:200140000895FF920F931F93CF93DF93F82EFB01E90102C0E856F14081E0E836F807D4F7C3
:2001600002C0E759FE4FF7FDFCCF4115510521F4BE01AE01CE0194C08FEF90E0841B950BF2
:20018000BE01AFD6292F332727FD3A950CE310E0CF016CE370E0D0D662307105C1F1633035
:2001A000710544F46115710589F06130710509F077C018C06430710509F44DC064307105FF
:2001C000B4F16530710509F06BC056C0BE01621B730BCF0186D66CE370E0AED6620F731F29
:2001E000A9015DC0CF016CE370E0A6D6BE01621B730BA801481B590BCA0173D66CE370E070
:200200009BD6CB01820F931FBE01A90149C0CF016CE370E091D6BE01621B730B62D66CE3D5
:2002200070E08AD6AB01420F531FBE0112C0CF016CE370E081D6BE01621B730BA801481B82
:20024000590BCA014ED66CE370E076D6620F731FAE01C90125C0CF016CE370E06DD6BE018E
:20026000621B730B3ED66CE370E066D6CB01820F931FB901AE0114C0CF016CE370E05CD6A7
:20028000BE01621B730BA801481B590BCA0129D66CE370E051D6AB01420F531FB901CE01AC
:2002A000EF2DF0E0E457FF4F23E0959587952A95E1F7808393E0759567959A95E1F765837E
:2002C00083E0559547958A95E1F74287DF91CF911F910F91FF90089540E050E016C08C91A6
:2002E00087BB808188BB2F5F3F4F26173707B8F304C017BA18BA6F5F7F4F6F317105C8F362
:200300004F5F5F4F4031510579F0FA01E457FF4F8081682F70E020E030E0DA01AC59BF4FE7
:20032000FA01ED58FF4FE1CF08950F931F93CF93DF938C01000F111F000F111FC0E0D0E05F
:2003400002C0CADF2196C017D107D8F3DF91CF911F910F9108958BE990E060E070E087D475
:200360008F3018F48093A60008951092A60008958BE990E060E070E07AD44091A6008417A3
:2003800029F08BE990E060E070E078D408954F925F926F927F928F929F92AF92BF92CF92BE
:2003A000DF92EF92FF920F931F93CF93DF936A017B0139012801A0E0B0E0BC01CD0120E6A7
:2003C0003AEE40E050E09FD54B015C018C0C9D1CAE1CBF1CE30101E0A6D4681579058A05C9
:2003E0009B05E8F4802F992787FD9095C80FD91FC415D50509F40FEFC615D70509F401E057
:2004000010E0812FBE014FEF50E02FEF30E099DE1F5F1530B1F78BE490E087DFDDCFDF919E
:20042000CF911F910F91FF90EF90DF90CF90BF90AF909F908F907F906F905F904F900895DB
:20044000AF92BF92CF92DF92EF92FF920F931F937A018B01A0E0B0E0BC01CD0120E63AEE02
:2004600040E050E050D55B016C01AE0CBF1CC01ED11E01E0EE24E39410E0FF24F39453D4B1
:200480006A157B058C059D05F0F4802F81508E3108F0EF24EE2011F4082F01C00F5F002360
:2004A00031F4E12FF0E0E457FF4F10821F5F1F3008F010E0E12FF0E0E457FF4F008388E013
:2004C00090E033DFDCCF1F910F91FF90EF90DF90CF90BF90AF9008952F923F924F925F9234
:2004E0006F927F928F929F92AF92BF92CF92DF92EF92FF920F931F93DF93CF9300D00F9289
:20050000CDB7DEB76A017B012983A0E0B0E0BC01CD0120E63AEE40E050E0F5D44B015C01A4
:200520008C0C9D1CAE1CBF1C402E5524222433242418350868E6662E61E0762E6418750808
:20054000F2D3681579058A059B05B8F5630158E6E52E51E0F52EE7D3681579058A059B0512
:2005600078F710E01B821A828A819B81698170E0E3D4CB018E0D9F1D68E671E0DDD4BC019B
:20058000812F4FEF50E02FEF30E0DBDD1F5F8A819B8188599E4F9B838A83153029F789E1EA
:2005A00090E0C3DEE20CF31CC20CD31CC601840D951D1816190624F6CECF0F900F900F9085
:2005C000CF91DF911F910F91FF90EF90DF90CF90BF90AF909F908F907F906F905F904F9067
:2005E0003F902F9008954F925F926F927F928F929F92AF92BF92CF92DF92EF92FF920F9382
:200600001F93DF93CF93CDB7DEB72B970FB6F894DEBF0FBECDBF7C014A015B016E01089403
:20062000C11CD11C8AE0F60111928A95E9F768E671E080E090E02ED47A83698368E671E0F4
:2006400080E090E027D47C836B8368E671E080E090E020D47E836D8368E671E080E090E01F
:2006600019D478876F8368E671E080E090E012D47A87698700E010E0C801B70120E63AEED7
:2006800040E050E040D42B013C01480C591C6A1C7B1C8C2CCD2C77E6E72E71E0F72E43D3F8
:2006A000641575058605970508F5882D9C2D8C0190E0F801608171816150704071836083A4
:2006C0006F5F7F4F11F4F182E082892F4FEF50E02FEF30E09B8735DD9B859F5F0E5F1F4F23
:2006E000953039F789E190E020DED9CF2B960FB6F894DEBF0FBECDBFCF91DF911F910F915D
:20070000FF90EF90DF90CF90BF90AF909F908F907F906F905F904F9008952F923F924F9235
:200720005F926F927F928F929F92AF92BF92CF92DF92EF92FF920F931F93DF93CF93CDB742
:20074000DEB72B970FB6F894DEBF0FBECDBF7C012A013B01122F0B8768E671E080E090E0D5
:2007600099D34B01DE011196E7E8F0E085E001900D928150E1F7DE011696E2E8F0E085E0D4
:2007800001900D928150E1F7B70180E090E020E63AEE40E050E0B7D36B017C01C40CD51C46
:2007A000E61CF71C1E010894211C311CE6E04E2E512C4C0E5D1E612E7724B5D26C157D0597
:2007C0008E059F0508F048C052018101802F82199B85913039F4F8012081B4014EEF50E0F9
:2007E00030E009C0FB85F23039F4F8014081B40150E02EEF30E0A5DCF8012081822F90E049
:200800008C3F910514F4233088F4F5018081F1E08F27F5018083233010F4860C971CF8E6AF
:200820008F16F1E09F0610F088249924F5018081882311F02E5F01C02250F80120830F5FC7
:200840001F4F0894A11CB11C0415150509F0BECF8AE090E06ADDB1CF2B960FB6F894DEBFFB
:200860000FBECDBFCF91DF911F910F91FF90EF90DF90CF90BF90AF909F908F907F906F9039
:200880005F904F903F902F9008958F929F92AF92BF92CF92DF92EF92FF921F937C014A011D
:2008A0005B0110E068E671E080E090E0F3D29B01AC01812FB9014FEF50E02FEF30E041DC4C
:2008C0001F5F153079F7B70180E090E020E63AEE40E050E018D36B017C01C80CD91CEA1C3C
:2008E000FB1C65E070E080E090E0D4D2162F68E671E080E090E0CED29B01AC01812FB901CF
:200900004FEF50E02FEF30E01CDC88EE93E00DDD0AD26C157D058E059F0518F31F91FF9010
:20092000EF90DF90CF90BF90AF909F908F900895CF92DF92EF92FF920F931F9394C0FC0168
:20094000E457FF4F1082019680319105C4F36EE070E080E090E09ED2882777FD8095982F0A
:20096000FB016E30710508F07EC0E15FFF4F0994DAD1AB01BC0185E090E024E115C0D3D19F
:20098000AB01BC0185E090E024E116C0CCD1AB01BC0185E090E024E105E00FC0C4D1AB0169
:2009A000BC0185E090E025E001E007C0BCD1AB01BC0185E090E025E002E08EDD54C0B3D143
:2009C000AB01BC0185E090E060DF4DC0ACD1AB01BC0185E090E021E006C0A5D1AB01BC012C
:2009E00085E090E024E001E098DE3DC09CD1AB01BC0185E090E024DD36C095D1AB01BC0159
:200A000085E090E0F0DD2FC08ED1AB01BC0185E090E020E030E008E710E024C084D1AB01D4
:200A2000BC0185E090E028E730E000EF10E01AC07AD1AB01BC0185E090E020EF30E007E6B7
:200A400011E010C068E671E080E090E023D26B017C018B0168D1AB01BC0108581F4F85E027
:200A600090E0960194DC80E090E06ECF8091A60081508093A6008F3018F08EE08093A600C3
:200A800077DC3798479A85B7846885BF85B7877E806185BF85B7806285BF7894889564EFA3
:200AA00071E080E090E04DD185B78F7D85BF0895CF92DF92EF92FF920F931F93E091A6007F
:200AC000F0E0E457FF4F8FE1808388EE93E02DDCE091A600F0E0E457FF4F10826AEF70E0AD
:200AE00080E090E02ED144DC8091A600E82FF0E0EF30F10508F080C0E35EFF4F099413D10C
:200B0000AB01BC0180EF90E024E117C00CD1AB01BC0180EF90E024E102E0DEDC6DC003D1EA
:200B2000AB01BC0180EF90E024E105E0F6CFFBD0AB01BC0180EF90E025E001E0EECFF3D045
:200B4000AB01BC0180EF90E025E0E6CFECD0AB01BC0180EF90E099DE4FC0E5D0AB01BC01EB
:200B600080EF90E040DD48C0DED0AB01BC0180EF90E021E006C0D7D0AB01BC0180EF90E0C5
:200B800024E001E0CADD38C0CED0AB01BC0180EF90E056DC31C0C7D0AB01BC0180EF90E0E9
:200BA00020E030E008E710E024C0BDD0AB01BC0180EF90E028E730E000EF10E01AC0B3D032
:200BC000AB01BC0180EF90E020EF30E007E611E010C068E671E080E090E05CD16B017C017B
:200BE0008B01A1D0AB01BC0108581F4F80EF90E09601CDDB01C09CDE39DF1F910F91FF9071
:200C0000EF90DF90CF9008950F93DF93CF9300D0CDB7DEB704B600FE06C014BE9CDB80E064
:200C200090E000E21BC004B601FEF9CF14BE8091A6008F5F8093A6008F3088F31092A60054
:200C4000EECF9C01220F331F3A83298381E0FAD081709070E981FA818E2B9F2B015089F7F9
:200C600039D10F900F90CF91DF910F910895E199FECF7FBB6EBBE09A8DB30895E199FECFD7
:200C80001CBA7FBB6EBB4DBB0FB6F894E29AE19A0FBE08951F920F920FB60F9211242F93B2
:200CA0003F938F939F93AF93BF938091A0009091A100A091A200B091A3003091A400232F99
:200CC0002D5F2D3728F02D570296A11DB11D03C00196A11DB11D2093A4008093A000909351
:200CE000A100A093A200B093A30080919C0090919D00A0919E00B0919F000196A11DB11D5B
:200D000080939C0090939D00A0939E00B0939F00BF91AF919F918F913F912F910F900FBED5
:200D20000F901F9018958FB7F8942091A0003091A1004091A2005091A3008FBFB901CA0169
:200D400008959B01AC017FB7F89480919C0090919D00A0919E00B0919F006FB508B602FEEF
:200D600005C06F3F19F00196A11DB11D7FBFBA2FA92F982F8827860F911DA11DB11D62E04E
:200D8000880F991FAA1FBB1F6A95D1F7BC012EC0FFB7F89480919C0090919D00A0919E0073
:200DA000B0919F00EFB508B602FE05C0EF3F19F00196A11DB11DFFBFBA2FA92F982F8827DD
:200DC0008E0F911DA11DB11DE2E0880F991FAA1FBB1FEA95D1F7861B970B885E9340C0F293
:200DE000215030404040504068517C4F211531054105510569F60895789480B7806880BF10
:200E000080B7806480BF8CB580648CBD8FEF8DBD80B7807F876080BF89B7846089BF83B740
:200E2000887F83BF8AB58C7F81608ABD83B7877F83BF83B7887F836083BF86B1876086B9B2
:200E4000379A0895482F863008F046508091A50027B1382F3295330F330F307C2F72322B7F
:200E600090E08470907096958795969587958295807F382B37B987B1807F842B87B9369A21
:200E80003699FECF24B135B1C9010895B5DFBCDE0FDEFECFEF92FF920F931F937B018C013D
:200EA000611571058105910529F420E030E040E050E009C039D9A801970151D0AC01CB01F7
:200EC000DA019C01AD01B901CA011F910F91FF90EF900895009721F0BC0180E090E028D936
:200EE00008955527002480FF02C0060E571F660F771F6115710521F096958795009799F774
:200F0000952F802D0895FF27EE27BB27AA2760FF04C0A20FB31FE41FF51F220F331F441F32
:200F2000551F969587957795679589F70097760771F7CF01BD01089597FB092E07260AD0F7
:200F400077FD04D027D006D000201AF4709561957F4F0895F6F7909581959F4F089597FBA3
:200F6000092E05260ED057FD04D028D00AD0001C38F450954095309521953F4F4F4F5F4FE0
:200F80000895F6F790958095709561957F4F8F4F9F4F0895AA1BBB1B51E107C0AA1FBB1F24
:200FA000A617B70710F0A61BB70B881F991F5A95A9F780959095BC01CD010895A1E21A2E18
:200FC000AA1BBB1BFD010DC0AA1FBB1FEE1FFF1FA217B307E407F50720F0A21BB30BE40B09
:200FE000F50B661F771F881F991F1A9469F760957095809590959B01AC01BD01CF010895C1
:201000002F923F924F925F926F927F928F929F92AF92BF92CF92DF92EF92FF920F931F933E
:20102000CF93DF93CDB7DEB7CA1BDB0B0FB6F894DEBF0FBECDBF09942A88398848885F84EE
:201040006E847D848C849B84AA84B984C884DF80EE80FD800C811B81AA81B981CE0FD11D14
:201060000FB6F894DEBF0FBECDBFED010895F894FFCF010000000311180C06060311180CC7
:1E1080000A051209140201100804020110080402011008040101010101251D150D0549
:00000001FF
